:100000000C9434000C9451000C9451000C94510049
:100010000C9451000C9451000C9451000C9451001C
:100020000C9451000C9451000C9451000C9451000C
:100030000C9451000C9451000C9451000C945100FC
:100040000C9451000C9451000C94B8000C94510085
:100050000C9451000C9451000C9451000C945100DC
:100060000C9451000C94510011241FBECFEFD8E026
:10007000DEBFCDBF11E0A0E0B1E0ECE1F4E002C0F2
:1000800005900D92A833B107D9F711E0A8E3B1E0CC
:1000900001C01D92AB37B107E1F70E9453000C94E9
:1000A0000C020C940000CF92DF92EF92FF920F931C
:1000B0001F93DF93CF93CDB7DEB7C054D0400FB6B8
:1000C000F894DEBF0FBECDBF60E875E280E090E03F
:1000D0000E94E40080E9C82E81E0D82E7E010894B9
:1000E000E11CF11C80E091E00E940F010E940401DC
:1000F0008823E1F388EE93E0F6013197F1F7019759
:10010000D9F7C7010E944701182FC7010E940F01AC
:10011000212F30E0F701E20FF31F10822150304011
:10012000A701420F531F2F5F3F4FD70160E08F01A0
:1001300009C0FA0190818C91981709F46F5F4150C2
:1001400050401196A017B107A1F7862F992787FD78
:1001500090958217930719F481E191E002C083E240
:1001600091E00E940F0184E391E00E940F01BACF59
:100170001F920F920FB60F9211248F939F93EF93BC
:10018000FF9380913A019091C600E82FF0E0E55C82
:10019000FE4F90838F5F80933A0180913A018F7375
:1001A00080933A0180913801803428F4809138019D
:1001B0008F5F80933801FF91EF919F918F910F9006
:1001C0000FBE0F901F9018959B01AC0180E28093A9
:1001D000C00088E98093C10086E08093C20084E07B
:1001E000220F331F441F551F8A95D1F760E074E238
:1001F00084EF90E00E94EA01215030403093C50026
:100200002093C40078940895809138010895982F20
:100210008091C00085FFFCCF9093C6000895FC013B
:1002200007C08091C00085FFFCCF9093C600319637
:1002300090819923B1F708959C01F9012F5F3F4FF9
:100240009491992339F08091C00085FFFCCF909361
:10025000C600F3CF089580913801882311F4EFEFA1
:1002600014C080913901E82FF0E0E55CFE4FE08199
:100270008F5F80933901809139018F7380933901A9
:10028000809138018150809338018E2F0895EF922C
:10029000FF921F93CF93DF937C0110E006C00E9472
:1002A0002B01CE0DDF1D88831F5F80913801C12F88
:1002B000D0E08823A1F7CE0DDF1D1882812FDF91BA
:1002C000CF911F91FF90EF9008958091380188237E
:1002D00011F48FEF0895E0913901F0E0E55CFE4FF5
:1002E000808108951F93CF93DF9302C00E942B015A
:1002F00080913801882341F0E0913901F0E0E55C1C
:10030000FE4F8081803364F480913801882371F33B
:10031000E0913901F0E0E55CFE4F80818D3231F7EC
:1003200080913801882341F0E0913901F0E0E55CEB
:10033000FE4F80818A33D4F680913801882361F0A2
:10034000E0913901F0E0E55CFE4F80818D3221F4CF
:100350000E942B011FEF01C011E0C0E0D0E012C0ED
:100360000E942B019E0143E0220F331F4A95E1F7C3
:10037000CC0FDD1FC20FD31FE097992787FD909503
:10038000C80FD91F809138018823A1F0E09139016D
:10039000F0E0E55CFE4F8081803364F080913801AD
:1003A0008823F1F2E0913901F0E0E55CFE4F8081B5
:1003B0008A33B4F2812F992787FD9095C89F9001C9
:1003C000C99F300DD89F300D1124C901DF91CF9105
:1003D0001F910895A1E21A2EAA1BBB1BFD010DC09F
:1003E000AA1FBB1FEE1FFF1FA217B307E407F507E5
:1003F00020F0A21BB30BE40BF50B661F771F881FC1
:10040000991F1A9469F760957095809590959B0156
:0C041000AC01BD01CF010895F894FFCFAE
:10041C00556E657369746520737472696E673A20E2
:10042C0000206A657374652070616C696E64726F0C
:10043C006D2E00206E696A652070616C696E647245
:08044C006F6D2E000D0A000087
:00000001FF
