:100000000C9434000C9451000C9451000C94510049
:100010000C9451000C9451000C9451000C9451001C
:100020000C9451000C9451000C9451000C9451000C
:100030000C9451000C9451000C9451000C945100FC
:100040000C9451000C9451000C94AF000C9451008E
:100050000C9451000C9451000C9451000C945100DC
:100060000C9451000C94510011241FBECFEFD8E026
:10007000DEBFCDBF11E0A0E0B1E0EAE0F4E002C0F5
:1000800005900D92A232B107D9F711E0A2E2B1E0DA
:1000900001C01D92A536B107E1F70E9453000C94F0
:1000A00003020C9400006F927F928F929F92AF9206
:1000B000BF92CF92DF92EF92FF920F931F93DF9345
:1000C000CF93CDB7DEB7C058D0400FB6F894DEBF9F
:1000D0000FBECDBF60E875E280E090E00E94DB00DB
:1000E00090E9692E91E0792E4E010894811C911CB3
:1000F00081E4A82EB12CAC0EBD1E80E091E00E94E0
:1001000006010E94FB008823E1F388EE93E0F301EF
:100110003197F1F70197D9F7C4010E943E0185019B
:1001200074016501C80ED11C13C0F7019081892F9D
:1001300081568A3120F49052F801908304C083E103
:1001400091E00E9406010F5F1F4F0894E11CF11C13
:100150000C151D0551F7C5010E940601CECF1F9257
:100160000F920FB60F9211248F939F93EF93FF93EB
:10017000809124019091C600E82FF0E0EB5DFE4FE6
:1001800090838F5F80932401809124018F738093EB
:10019000240180912201803428F4809122018F5F14
:1001A00080932201FF91EF919F918F910F900FBE4D
:1001B0000F901F9018959B01AC0180E28093C000C6
:1001C00088E98093C10086E08093C20084E0220F1A
:1001D000331F441F551F8A95D1F760E074E284EF06
:1001E00090E00E94E101215030403093C5002093FF
:1001F000C40078940895809122010895982F8091E9
:10020000C00085FFFCCF9093C6000895FC0107C095
:100210008091C00085FFFCCF9093C60031969081FD
:100220009923B1F708959C01F9012F5F3F4F9491F5
:10023000992339F08091C00085FFFCCF9093C600D0
:10024000F3CF089580912201882311F4EFEF14C0B9
:1002500080912301E82FF0E0EB5DFE4FE0818F5F9E
:1002600080932301809123018F73809323018091D8
:1002700022018150809322018E2F0895EF92FF92E8
:100280001F93CF93DF937C0110E006C00E942201F0
:10029000CE0DDF1D88831F5F80912201C12FD0E02A
:1002A0008823A1F7CE0DDF1D1882812FDF91CF911A
:1002B0001F91FF90EF90089580912201882311F4FF
:1002C0008FEF0895E0912301F0E0EB5DFE4F808118
:1002D00008951F93CF93DF9302C00E942201809163
:1002E0002201882341F0E0912301F0E0EB5DFE4F15
:1002F0008081803364F480912201882371F3E0913E
:100300002301F0E0EB5DFE4F80818D3231F780916B
:100310002201882341F0E0912301F0E0EB5DFE4FE4
:1003200080818A33D4F680912201882361F0E091A4
:100330002301F0E0EB5DFE4F80818D3221F40E94BD
:1003400022011FEF01C011E0C0E0D0E012C00E9406
:1003500022019E0143E0220F331F4A95E1F7CC0FA3
:10036000DD1FC20FD31FE097992787FD9095C80F17
:10037000D91F809122018823A1F0E0912301F0E0B0
:10038000EB5DFE4F8081803364F0809122018823F1
:10039000F1F2E0912301F0E0EB5DFE4F80818A33C2
:1003A000B4F2812F992787FD9095C89F9001C99F2E
:1003B000300DD89F300D1124C901DF91CF911F91CD
:1003C0000895A1E21A2EAA1BBB1BFD010DC0AA1F96
:1003D000BB1FEE1FFF1FA217B307E407F50720F0AE
:1003E000A21BB30BE40BF50B661F771F881F991F29
:1003F0001A9469F760957095809590959B01AC0172
:0A040000BD01CF010895F894FFCF6D
:10040A00756E657369746520726563656E69637577
:10041A000D0A00706F67726573616E20756E6F7377
:02042A000000D0
:00000001FF
