:100000000C9434000C9451000C9451000C94510049
:100010000C9451000C9451000C9451000C9451001C
:100020000C9451000C9451000C9451000C9451000C
:100030000C9451000C9451000C9451000C945100FC
:100040000C9451000C9451000C941A010C94510022
:100050000C9451000C9451000C9451000C945100DC
:100060000C9451000C94510011241FBECFEFD8E026
:10007000DEBFCDBF11E0A0E0B1E0E0EEF4E002C0F1
:1000800005900D92A43AB107D9F711E0A4EAB1E0C6
:1000900001C01D92A73EB107E1F70E9453000C94E6
:1000A0006E020C9400006F927F928F929F92AF929B
:1000B000BF92CF92DF92EF92FF920F931F93DF9345
:1000C000CF93CDB7DEB7CF58D0400FB6F894DEBF90
:1000D0000FBECDBF60E875E280E090E00E9446016F
:1000E000DE011796E5E9F1E089E001900D9281507B
:1000F000E1F7DE011196EEE9F1E086E001900D9264
:100100008150E1F7CC24DD2430E9632E31E0732EF9
:1001100020E1822E912C8C0E9D1E90E5A92EB12CF3
:10012000AC0EBD1E87E0E82EF12CEC0EFD1E8E01FC
:100130000F5F1F4F80E091E00E9471010E946601F5
:100140008823E1F388EE93E0F3013197F1F701970B
:10015000D9F7C4010E94A9018BE191E00E947101CD
:100160000E9466018823E1F388EE93E0F301319762
:10017000F1F70197D9F7C5010E94A901D7010D90A8
:100180000020E9F7BD01615070406E197F0920E041
:1001900030E00DC0F701E20FF31FD401A20FB31F2F
:1001A00090818C91981709F4C3942F5F3F4F2617C5
:1001B000370780F3D8010D900020E9F7AD014150D9
:1001C0005040401B510B20E030E00DC0F801E20F21
:1001D000F31FD501A20FB31F90818C91981709F4DA
:1001E000D3942F5F3F4F2417350780F38C2D992729
:1001F00087FD90958617970719F48FE291E002C06A
:100200008CE491E00E947101D8010D900020E9F783
:100210001197A01BB10B8D2D992787FD90958A17FB
:100220009B0719F48BE691E002C08FE791E00E94F2
:10023000710180CF1F920F920FB60F9211248F93EE
:100240009F93EF93FF938091A6019091C600E82FB2
:10025000F0E0E955FE4F90838F5F8093A601809177
:10026000A6018F738093A6018091A401803428F4A5
:100270008091A4018F5F8093A401FF91EF919F91E2
:100280008F910F900FBE0F901F9018959B01AC019E
:1002900080E28093C00088E98093C10086E080936B
:1002A000C20084E0220F331F441F551F8A95D1F7E7
:1002B00060E074E284EF90E00E944C0221503040F4
:1002C0003093C5002093C400789408958091A401D0
:1002D0000895982F8091C00085FFFCCF9093C600B1
:1002E0000895FC0107C08091C00085FFFCCF90936A
:1002F000C600319690819923B1F708959C01F901C8
:100300002F5F3F4F9491992339F08091C00085FF72
:10031000FCCF9093C600F3CF08958091A401882369
:1003200011F4EFEF14C08091A501E82FF0E0E9553A
:10033000FE4FE0818F5F8093A5018091A5018F73AF
:100340008093A5018091A40181508093A4018E2FF8
:100350000895EF92FF921F93CF93DF937C0110E0FB
:1003600006C00E948D01CE0DDF1D88831F5F809126
:10037000A401C12FD0E08823A1F7CE0DDF1D188284
:10038000812FDF91CF911F91FF90EF900895809181
:10039000A401882311F48FEF0895E091A501F0E006
:1003A000E955FE4F808108951F93CF93DF9302C0DC
:1003B0000E948D018091A401882341F0E091A50164
:1003C000F0E0E955FE4F8081803364F48091A40110
:1003D000882371F3E091A501F0E0E955FE4F80819B
:1003E0008D3231F78091A401882341F0E091A5017D
:1003F000F0E0E955FE4F80818A33D4F68091A40164
:10040000882361F0E091A501F0E0E955FE4F80817D
:100410008D3221F40E948D011FEF01C011E0C0E078
:10042000D0E012C00E948D019E0143E0220F331FD5
:100430004A95E1F7CC0FDD1FC20FD31FE097992734
:1004400087FD9095C80FD91F8091A4018823A1F042
:10045000E091A501F0E0E955FE4F8081803364F022
:100460008091A4018823F1F2E091A501F0E0E95523
:10047000FE4F80818A33B4F2812F992787FD9095B2
:10048000C89F9001C99F300DD89F300D1124C9011C
:10049000DF91CF911F910895A1E21A2EAA1BBB1BD9
:1004A000FD010DC0AA1FBB1FEE1FFF1FA217B30740
:1004B000E407F50720F0A21BB30BE40BF50B661F56
:1004C000771F881F991F1A9469F76095709580951A
:1004D00090959B01AC01BD01CF010895F894FFCF29
:1004E000556E6573697465206B6F7269736E6963AD
:1004F0006B6F20696D653A200D0A00556E65736952
:100500007465206C6F7A696E6B753A200D0A004B2A
:100510006F7269736E69636B6F20696D65206A65C0
:10052000207461636E6F2021200D0A004B6F726989
:10053000736E69636B6F20696D65206A65206E65F7
:100540007461636E6F2021200D0A00536966726129
:10055000206A65207461636E612021200D0A00739A
:1005600069667261206A65206E657461636E6120E0
:1005700021200D0A00566173696C696A6500736910
:04058000667261003E
:00000001FF
