:100000000C9434000C9451000C9451000C94510049
:100010000C9451000C9451000C9451000C9451001C
:100020000C9451000C9451000C9451000C9451000C
:100030000C9451000C9451000C9451000C945100FC
:100040000C9451000C9451000C94A2000C9451009B
:100050000C9451000C9451000C9451000C945100DC
:100060000C9451000C94510011241FBECFEFD8E026
:10007000DEBFCDBF11E0A0E0B1E0E0EFF3E002C0F1
:1000800005900D92AA33B107D9F711E0AAE3B1E0C8
:1000900001C01D92AD37B107E1F70E9453000C94E7
:1000A000F6010C940000CF92DF92EF92FF920F9333
:1000B0001F93DF93CF93CDB7DEB7EC970FB6F894CD
:1000C000DEBF0FBECDBFDE015596E1E1F1E089E173
:1000D00001900D928150E1F7FE01BE968FE0DF01A5
:1000E0001D928A95E9F760E875E280E090E00E9451
:1000F000CE0095E1C92ED12CCC0EDD1E80E9E82E74
:1001000081E0F82E8E010F5F1F4FC6010E94F9009B
:100110000E94EE008823E1F388EE93E0F701319727
:10012000F1F70197D9F7C8010E94310180E091E011
:100130000E94F900C8010E94F90089E091E00E9444
:10014000F900E3CF1F920F920FB60F9211248F93F5
:100150009F93EF93FF9380913C019091C600E82F0D
:10016000F0E0E35CFE4F90838F5F80933C018091D1
:100170003C018F7380933C0180913A01803428F4D4
:1001800080913A018F5F80933A01FF91EF919F91A7
:100190008F910F900FBE0F901F9018959B01AC018F
:1001A00080E28093C00088E98093C10086E080935C
:1001B000C20084E0220F331F441F551F8A95D1F7D8
:1001C00060E074E284EF90E00E94D401215030405E
:1001D0003093C5002093C4007894089580913A012B
:1001E0000895982F8091C00085FFFCCF9093C600A2
:1001F0000895FC0107C08091C00085FFFCCF90935B
:10020000C600319690819923B1F708959C01F901B8
:100210002F5F3F4F9491992339F08091C00085FF63
:10022000FCCF9093C600F3CF089580913A018823C4
:1002300011F4EFEF14C080913B01E82FF0E0E35C94
:10024000FE4FE0818F5F80933B0180913B018F7374
:1002500080933B0180913A01815080933A018E2F27
:100260000895EF92FF921F93CF93DF937C0110E0EC
:1002700006C00E941501CE0DDF1D88831F5F80918F
:100280003A01C12FD0E08823A1F7CE0DDF1D1882DF
:10029000812FDF91CF911F91FF90EF900895809172
:1002A0003A01882311F48FEF0895E0913B01F0E0CB
:1002B000E35CFE4F808108951F93CF93DF9302C0CC
:1002C0000E94150180913A01882341F0E0913B01A1
:1002D000F0E0E35CFE4F8081803364F480913A016A
:1002E000882371F3E0913B01F0E0E35CFE4F8081F5
:1002F0008D3231F780913A01882341F0E0913B0142
:10030000F0E0E35CFE4F80818A33D4F680913A01BD
:10031000882361F0E0913B01F0E0E35CFE4F8081D7
:100320008D3221F40E9415011FEF01C011E0C0E0E1
:10033000D0E012C00E9415019E0143E0220F331F3E
:100340004A95E1F7CC0FDD1FC20FD31FE097992725
:1003500087FD9095C80FD91F80913A018823A1F09D
:10036000E0913B01F0E0E35CFE4F8081803364F07C
:1003700080913A018823F1F2E0913B01F0E0E35CE7
:10038000FE4F80818A33B4F2812F992787FD9095A3
:10039000C89F9001C99F300DD89F300D1124C9010D
:1003A000DF91CF911F910895A1E21A2EAA1BBB1BCA
:1003B000FD010DC0AA1FBB1FEE1FFF1FA217B30731
:1003C000E407F50720F0A21BB30BE40BF50B661F47
:1003D000771F881F991F1A9469F76095709580950B
:1003E00090959B01AC01BD01CF010895F894FFCF1A
:1003F0005A647261766F2C20002E203A29200D0A53
:1004000000556E657369746520696D65206920709B
:1004100072657A696D65200D0A0000000000000019
:0A04200000000000000000000000D2
:00000001FF
